{
    "abi": [
        {
            "type": "function",
            "name": "appleExists",
            "inputs": [
                {
                    "name": "appleId",
                    "type": "uint256",
                    "internalType": "uint256"
                }
            ],
            "outputs": [
                {
                    "name": "",
                    "type": "bool",
                    "internalType": "bool"
                }
            ],
            "stateMutability": "view"
        },
        {
            "type": "function",
            "name": "apples",
            "inputs": [
                {
                    "name": "",
                    "type": "uint256",
                    "internalType": "uint256"
                }
            ],
            "outputs": [
                {
                    "name": "id",
                    "type": "uint256",
                    "internalType": "uint256"
                },
                {
                    "name": "harvest",
                    "type": "tuple",
                    "internalType": "struct AppleLifecycle.HarvestData",
                    "components": [
                        {
                            "name": "soilComposition",
                            "type": "string",
                            "internalType": "string"
                        },
                        {
                            "name": "humidity",
                            "type": "uint256[]",
                            "internalType": "uint256[]"
                        },
                        {
                            "name": "chemicals",
                            "type": "uint256[]",
                            "internalType": "uint256[]"
                        },
                        {
                            "name": "timestamp",
                            "type": "uint256",
                            "internalType": "uint256"
                        }
                    ]
                },
                {
                    "name": "transport",
                    "type": "tuple",
                    "internalType": "struct AppleLifecycle.TransportData",
                    "components": [
                        {
                            "name": "startTimestamp",
                            "type": "uint256",
                            "internalType": "uint256"
                        },
                        {
                            "name": "endTimestamp",
                            "type": "uint256",
                            "internalType": "uint256"
                        },
                        {
                            "name": "gpsCoordinates",
                            "type": "string[]",
                            "internalType": "string[]"
                        },
                        {
                            "name": "temperatures",
                            "type": "int256[]",
                            "internalType": "int256[]"
                        },
                        {
                            "name": "ethyleneLevels",
                            "type": "uint256[]",
                            "internalType": "uint256[]"
                        }
                    ]
                },
                {
                    "name": "store",
                    "type": "tuple",
                    "internalType": "struct AppleLifecycle.StoreData",
                    "components": [
                        {
                            "name": "timestamp",
                            "type": "uint256",
                            "internalType": "uint256"
                        },
                        {
                            "name": "ethyleneLevel",
                            "type": "uint256",
                            "internalType": "uint256"
                        },
                        {
                            "name": "sold",
                            "type": "bool",
                            "internalType": "bool"
                        },
                        {
                            "name": "buyer",
                            "type": "address",
                            "internalType": "address"
                        },
                        {
                            "name": "freshnessScore",
                            "type": "uint256",
                            "internalType": "uint256"
                        }
                    ]
                },
                {
                    "name": "exists",
                    "type": "bool",
                    "internalType": "bool"
                }
            ],
            "stateMutability": "view"
        },
        {
            "type": "function",
            "name": "createApple",
            "inputs": [
                {
                    "name": "soilComposition",
                    "type": "string",
                    "internalType": "string"
                },
                {
                    "name": "humidity",
                    "type": "uint256[]",
                    "internalType": "uint256[]"
                },
                {
                    "name": "chemicals",
                    "type": "uint256[]",
                    "internalType": "uint256[]"
                }
            ],
            "outputs": [],
            "stateMutability": "nonpayable"
        },
        {
            "type": "function",
            "name": "getApple",
            "inputs": [
                {
                    "name": "appleId",
                    "type": "uint256",
                    "internalType": "uint256"
                }
            ],
            "outputs": [
                {
                    "name": "",
                    "type": "tuple",
                    "internalType": "struct AppleLifecycle.Apple",
                    "components": [
                        {
                            "name": "id",
                            "type": "uint256",
                            "internalType": "uint256"
                        },
                        {
                            "name": "harvest",
                            "type": "tuple",
                            "internalType": "struct AppleLifecycle.HarvestData",
                            "components": [
                                {
                                    "name": "soilComposition",
                                    "type": "string",
                                    "internalType": "string"
                                },
                                {
                                    "name": "humidity",
                                    "type": "uint256[]",
                                    "internalType": "uint256[]"
                                },
                                {
                                    "name": "chemicals",
                                    "type": "uint256[]",
                                    "internalType": "uint256[]"
                                },
                                {
                                    "name": "timestamp",
                                    "type": "uint256",
                                    "internalType": "uint256"
                                }
                            ]
                        },
                        {
                            "name": "transport",
                            "type": "tuple",
                            "internalType": "struct AppleLifecycle.TransportData",
                            "components": [
                                {
                                    "name": "startTimestamp",
                                    "type": "uint256",
                                    "internalType": "uint256"
                                },
                                {
                                    "name": "endTimestamp",
                                    "type": "uint256",
                                    "internalType": "uint256"
                                },
                                {
                                    "name": "gpsCoordinates",
                                    "type": "string[]",
                                    "internalType": "string[]"
                                },
                                {
                                    "name": "temperatures",
                                    "type": "int256[]",
                                    "internalType": "int256[]"
                                },
                                {
                                    "name": "ethyleneLevels",
                                    "type": "uint256[]",
                                    "internalType": "uint256[]"
                                }
                            ]
                        },
                        {
                            "name": "warehouseLogs",
                            "type": "tuple[]",
                            "internalType": "struct AppleLifecycle.WarehouseData[]",
                            "components": [
                                {
                                    "name": "timestamp",
                                    "type": "uint256",
                                    "internalType": "uint256"
                                },
                                {
                                    "name": "temperature",
                                    "type": "int256",
                                    "internalType": "int256"
                                },
                                {
                                    "name": "ethyleneLevel",
                                    "type": "uint256",
                                    "internalType": "uint256"
                                },
                                {
                                    "name": "location",
                                    "type": "string",
                                    "internalType": "string"
                                },
                                {
                                    "name": "freshnessScore",
                                    "type": "uint256",
                                    "internalType": "uint256"
                                }
                            ]
                        },
                        {
                            "name": "store",
                            "type": "tuple",
                            "internalType": "struct AppleLifecycle.StoreData",
                            "components": [
                                {
                                    "name": "timestamp",
                                    "type": "uint256",
                                    "internalType": "uint256"
                                },
                                {
                                    "name": "ethyleneLevel",
                                    "type": "uint256",
                                    "internalType": "uint256"
                                },
                                {
                                    "name": "sold",
                                    "type": "bool",
                                    "internalType": "bool"
                                },
                                {
                                    "name": "buyer",
                                    "type": "address",
                                    "internalType": "address"
                                },
                                {
                                    "name": "freshnessScore",
                                    "type": "uint256",
                                    "internalType": "uint256"
                                }
                            ]
                        },
                        {
                            "name": "exists",
                            "type": "bool",
                            "internalType": "bool"
                        },
                        {
                            "name": "prices",
                            "type": "uint256[]",
                            "internalType": "uint256[]"
                        },
                        {
                            "name": "freshnessHistory",
                            "type": "uint256[]",
                            "internalType": "uint256[]"
                        }
                    ]
                }
            ],
            "stateMutability": "view"
        },
        {
            "type": "function",
            "name": "getCurrentFreshnessScore",
            "inputs": [
                {
                    "name": "appleId",
                    "type": "uint256",
                    "internalType": "uint256"
                }
            ],
            "outputs": [
                {
                    "name": "",
                    "type": "uint256",
                    "internalType": "uint256"
                }
            ],
            "stateMutability": "view"
        },
        {
            "type": "function",
            "name": "getFreshnessHistory",
            "inputs": [
                {
                    "name": "appleId",
                    "type": "uint256",
                    "internalType": "uint256"
                }
            ],
            "outputs": [
                {
                    "name": "",
                    "type": "uint256[]",
                    "internalType": "uint256[]"
                }
            ],
            "stateMutability": "view"
        },
        {
            "type": "function",
            "name": "logStore",
            "inputs": [
                {
                    "name": "appleId",
                    "type": "uint256",
                    "internalType": "uint256"
                },
                {
                    "name": "ethyleneLevel",
                    "type": "uint256",
                    "internalType": "uint256"
                },
                {
                    "name": "freshnessScore",
                    "type": "uint256",
                    "internalType": "uint256"
                }
            ],
            "outputs": [],
            "stateMutability": "nonpayable"
        },
        {
            "type": "function",
            "name": "logTransport",
            "inputs": [
                {
                    "name": "appleId",
                    "type": "uint256",
                    "internalType": "uint256"
                },
                {
                    "name": "startTimestamp",
                    "type": "uint256",
                    "internalType": "uint256"
                },
                {
                    "name": "endTimestamp",
                    "type": "uint256",
                    "internalType": "uint256"
                },
                {
                    "name": "gpsCoordinates",
                    "type": "string[]",
                    "internalType": "string[]"
                },
                {
                    "name": "temperatures",
                    "type": "int256[]",
                    "internalType": "int256[]"
                },
                {
                    "name": "ethyleneLevels",
                    "type": "uint256[]",
                    "internalType": "uint256[]"
                }
            ],
            "outputs": [],
            "stateMutability": "nonpayable"
        },
        {
            "type": "function",
            "name": "logWarehouse",
            "inputs": [
                {
                    "name": "appleId",
                    "type": "uint256",
                    "internalType": "uint256"
                },
                {
                    "name": "temperature",
                    "type": "int256",
                    "internalType": "int256"
                },
                {
                    "name": "ethyleneLevel",
                    "type": "uint256",
                    "internalType": "uint256"
                },
                {
                    "name": "location",
                    "type": "string",
                    "internalType": "string"
                },
                {
                    "name": "freshnessScore",
                    "type": "uint256",
                    "internalType": "uint256"
                }
            ],
            "outputs": [],
            "stateMutability": "nonpayable"
        },
        {
            "type": "function",
            "name": "nextAppleId",
            "inputs": [],
            "outputs": [
                {
                    "name": "",
                    "type": "uint256",
                    "internalType": "uint256"
                }
            ],
            "stateMutability": "view"
        },
        {
            "type": "function",
            "name": "sellApple",
            "inputs": [
                {
                    "name": "appleId",
                    "type": "uint256",
                    "internalType": "uint256"
                },
                {
                    "name": "buyer",
                    "type": "address",
                    "internalType": "address"
                }
            ],
            "outputs": [],
            "stateMutability": "nonpayable"
        },
        {
            "type": "function",
            "name": "updatePrice",
            "inputs": [
                {
                    "name": "appleId",
                    "type": "uint256",
                    "internalType": "uint256"
                },
                {
                    "name": "price",
                    "type": "uint256",
                    "internalType": "uint256"
                }
            ],
            "outputs": [],
            "stateMutability": "nonpayable"
        },
        {
            "type": "event",
            "name": "AppleCreated",
            "inputs": [
                {
                    "name": "appleId",
                    "type": "uint256",
                    "indexed": true,
                    "internalType": "uint256"
                }
            ],
            "anonymous": false
        },
        {
            "type": "event",
            "name": "AppleSold",
            "inputs": [
                {
                    "name": "appleId",
                    "type": "uint256",
                    "indexed": true,
                    "internalType": "uint256"
                },
                {
                    "name": "buyer",
                    "type": "address",
                    "indexed": false,
                    "internalType": "address"
                }
            ],
            "anonymous": false
        },
        {
            "type": "event",
            "name": "FreshnessScoreSet",
            "inputs": [
                {
                    "name": "appleId",
                    "type": "uint256",
                    "indexed": true,
                    "internalType": "uint256"
                },
                {
                    "name": "score",
                    "type": "uint256",
                    "indexed": false,
                    "internalType": "uint256"
                },
                {
                    "name": "stage",
                    "type": "string",
                    "indexed": false,
                    "internalType": "string"
                }
            ],
            "anonymous": false
        },
        {
            "type": "event",
            "name": "HarvestLogged",
            "inputs": [
                {
                    "name": "appleId",
                    "type": "uint256",
                    "indexed": true,
                    "internalType": "uint256"
                },
                {
                    "name": "soil",
                    "type": "string",
                    "indexed": false,
                    "internalType": "string"
                },
                {
                    "name": "latestHumidity",
                    "type": "uint256",
                    "indexed": false,
                    "internalType": "uint256"
                },
                {
                    "name": "chemicals",
                    "type": "uint256[]",
                    "indexed": false,
                    "internalType": "uint256[]"
                }
            ],
            "anonymous": false
        },
        {
            "type": "event",
            "name": "PriceUpdated",
            "inputs": [
                {
                    "name": "appleId",
                    "type": "uint256",
                    "indexed": true,
                    "internalType": "uint256"
                },
                {
                    "name": "price",
                    "type": "uint256",
                    "indexed": false,
                    "internalType": "uint256"
                }
            ],
            "anonymous": false
        },
        {
            "type": "event",
            "name": "StoreLogged",
            "inputs": [
                {
                    "name": "appleId",
                    "type": "uint256",
                    "indexed": true,
                    "internalType": "uint256"
                },
                {
                    "name": "ethyleneLevel",
                    "type": "uint256",
                    "indexed": false,
                    "internalType": "uint256"
                },
                {
                    "name": "freshnessScore",
                    "type": "uint256",
                    "indexed": false,
                    "internalType": "uint256"
                }
            ],
            "anonymous": false
        },
        {
            "type": "event",
            "name": "TransportLogged",
            "inputs": [
                {
                    "name": "appleId",
                    "type": "uint256",
                    "indexed": true,
                    "internalType": "uint256"
                },
                {
                    "name": "duration",
                    "type": "uint256",
                    "indexed": false,
                    "internalType": "uint256"
                }
            ],
            "anonymous": false
        },
        {
            "type": "event",
            "name": "WarehouseLogged",
            "inputs": [
                {
                    "name": "appleId",
                    "type": "uint256",
                    "indexed": true,
                    "internalType": "uint256"
                },
                {
                    "name": "temperature",
                    "type": "int256",
                    "indexed": false,
                    "internalType": "int256"
                },
                {
                    "name": "ethyleneLevel",
                    "type": "uint256",
                    "indexed": false,
                    "internalType": "uint256"
                },
                {
                    "name": "location",
                    "type": "string",
                    "indexed": false,
                    "internalType": "string"
                },
                {
                    "name": "freshnessScore",
                    "type": "uint256",
                    "indexed": false,
                    "internalType": "uint256"
                }
            ],
            "anonymous": false
        }
    ],
    "bytecode": {
        "object": "0x6080604052348015600e575f5ffd5b506133338061001c5f395ff3fe608060405234801561000f575f5ffd5b50600436106100b2575f3560e01c80638cecdbea1161006f5780638cecdbea1461018c5780638e5ba96e146101a8578063a91dabe3146101c4578063b14ce811146101e0578063d10da3b314610210578063ea02e9d714610240576100b2565b806320fb4a49146100b6578063261bbc39146100d45780636da7af7f1461010457806382367b2d1461012057806385d94cfc1461013c5780638c45ab8a14610158575b5f5ffd5b6100be610270565b6040516100cb9190611a93565b60405180910390f35b6100ee60048036038101906100e99190611ae7565b610276565b6040516100fb9190611b2c565b60405180910390f35b61011e60048036038101906101199190611cb4565b61029e565b005b61013a60048036038101906101359190611d47565b610498565b005b61015660048036038101906101519190611d85565b6105c2565b005b610172600480360381019061016d9190611ae7565b6107ea565b604051610183959493929190612201565b60405180910390f35b6101a660048036038101906101a19190612326565b610baa565b005b6101c260048036038101906101bd91906123f4565b610db9565b005b6101de60048036038101906101d991906125d0565b610ed7565b005b6101fa60048036038101906101f59190611ae7565b611027565b60405161020791906129fc565b60405180910390f35b61022a60048036038101906102259190611ae7565b611634565b6040516102379190611a93565b60405180910390f35b61025a60048036038101906102559190611ae7565b611743565b6040516102679190612a88565b60405180910390f35b60015481565b5f5f5f8381526020019081526020015f20600f015f9054906101000a900460ff169050919050565b5f5f8681526020019081526020015f20600f015f9054906101000a900460ff166102fd576040517f08c379a00000000000000000000000000000000000000000000000000000000081526004016102f490612b02565b60405180910390fd5b6064811115610341576040517f08c379a000000000000000000000000000000000000000000000000000000000815260040161033890612b90565b60405180910390fd5b5f6040518060a001604052804281526020018681526020018581526020018481526020018381525090505f5f8781526020019081526020015f20600a0181908060018154018082558091505060019003905f5260205f2090600502015f909190919091505f820151815f0155602082015181600101556040820151816002015560608201518160030190816103d69190612dab565b506080820151816004015550505f5f8781526020019081526020015f2060110182908060018154018082558091505060019003905f5260205f20015f9091909190915055857f4a493696d01d1c9bb5235c53e69f25c40ec3d2ae5bc81b65657b41ad0d4cc525868686866040516104509493929190612ec1565b60405180910390a2857f818580508eac63c5a9fe751a160552f254aa3360482f3ae56fe41fc8d99f4d03836040516104889190612f55565b60405180910390a2505050505050565b5f5f8381526020019081526020015f20600f015f9054906101000a900460ff166104f7576040517f08c379a00000000000000000000000000000000000000000000000000000000081526004016104ee90612b02565b60405180910390fd5b5f5f5f8481526020019081526020015f20600501600101540361054f576040517f08c379a000000000000000000000000000000000000000000000000000000000815260040161054690612fcb565b60405180910390fd5b5f5f8381526020019081526020015f2060100181908060018154018082558091505060019003905f5260205f20015f9091909190915055817f945c1c4e99aa89f648fbfe3df471b916f719e16d960fcec0737d4d56bd696838826040516105b69190611a93565b60405180910390a25050565b5f5f8481526020019081526020015f20600f015f9054906101000a900460ff16610621576040517f08c379a000000000000000000000000000000000000000000000000000000000815260040161061890612b02565b60405180910390fd5b6064811115610665576040517f08c379a000000000000000000000000000000000000000000000000000000000815260040161065c90612b90565b60405180910390fd5b6040518060a001604052804281526020018381526020015f151581526020015f73ffffffffffffffffffffffffffffffffffffffff168152602001828152505f5f8581526020019081526020015f20600b015f820151815f0155602082015181600101556040820151816002015f6101000a81548160ff02191690831515021790555060608201518160020160016101000a81548173ffffffffffffffffffffffffffffffffffffffff021916908373ffffffffffffffffffffffffffffffffffffffff160217905550608082015181600301559050505f5f8481526020019081526020015f2060110181908060018154018082558091505060019003905f5260205f20015f9091909190915055827f6d98ada7b096e94feb81daeb8aba30265bf16274a39e55623fa8d92f3f75420683836040516107a5929190612fe9565b60405180910390a2827f818580508eac63c5a9fe751a160552f254aa3360482f3ae56fe41fc8d99f4d03826040516107dd919061305a565b60405180910390a2505050565b5f602052805f5260405f205f91509050805f015490806001016040518060800160405290815f8201805461081d90612bdb565b80601f016020809104026020016040519081016040528092919081815260200182805461084990612bdb565b80156108945780601f1061086b57610100808354040283529160200191610894565b820191905f5260205f20905b81548152906001019060200180831161087757829003601f168201915b50505050508152602001600182018054806020026020016040519081016040528092919081815260200182805480156108ea57602002820191905f5260205f20905b8154815260200190600101908083116108d6575b505050505081526020016002820180548060200260200160405190810160405280929190818152602001828054801561094057602002820191905f5260205f20905b81548152602001906001019080831161092c575b5050505050815260200160038201548152505090806005016040518060a00160405290815f82015481526020016001820154815260200160028201805480602002602001604051908101604052809291908181526020015f905b82821015610a42578382905f5260205f200180546109b790612bdb565b80601f01602080910402602001604051908101604052809291908181526020018280546109e390612bdb565b8015610a2e5780601f10610a0557610100808354040283529160200191610a2e565b820191905f5260205f20905b815481529060010190602001808311610a1157829003601f168201915b50505050508152602001906001019061099a565b50505050815260200160038201805480602002602001604051908101604052809291908181526020018280548015610a9757602002820191905f5260205f20905b815481526020019060010190808311610a83575b5050505050815260200160048201805480602002602001604051908101604052809291908181526020018280548015610aed57602002820191905f5260205f20905b815481526020019060010190808311610ad9575b5050505050815250509080600b016040518060a00160405290815f820154815260200160018201548152602001600282015f9054906101000a900460ff161515151581526020016002820160019054906101000a900473ffffffffffffffffffffffffffffffffffffffff1673ffffffffffffffffffffffffffffffffffffffff1673ffffffffffffffffffffffffffffffffffffffff1681526020016003820154815250509080600f015f9054906101000a900460ff16905085565b5f825111610bed576040517f08c379a0000000000000000000000000000000000000000000000000000000008152600401610be4906130d0565b60405180910390fd5b5f815111610c30576040517f08c379a0000000000000000000000000000000000000000000000000000000008152600401610c2790613138565b60405180910390fd5b6001545f5f60015481526020019081526020015f205f01819055506040518060800160405280848152602001838152602001828152602001428152505f5f60015481526020019081526020015f206001015f820151815f019081610c949190612dab565b506020820151816001019080519060200190610cb192919061180b565b506040820151816002019080519060200190610cce92919061180b565b506060820151816003015590505060015f5f60015481526020019081526020015f20600f015f6101000a81548160ff0219169083151502179055506001547ff4a6ced0c87e630607f2857e2965fcbe4ac36250d9337358050f603b9607534e60405160405180910390a26001547f6bb8da24601a3bf8f590d493879bd0082692912b9eb9aa9edac324b9d4a9ff3d848460018651610d6c9190613183565b81518110610d7d57610d7c6131b6565b5b602002602001015184604051610d95939291906131e3565b60405180910390a260015f815480929190610daf90613226565b9190505550505050565b5f5f8381526020019081526020015f20600f015f9054906101000a900460ff16610e18576040517f08c379a0000000000000000000000000000000000000000000000000000000008152600401610e0f90612b02565b60405180910390fd5b60015f5f8481526020019081526020015f20600b016002015f6101000a81548160ff021916908315150217905550805f5f8481526020019081526020015f20600b0160020160016101000a81548173ffffffffffffffffffffffffffffffffffffffff021916908373ffffffffffffffffffffffffffffffffffffffff160217905550817fc454b6a61df2cfda766476c84ec98caf3fa46f59d6b5a22124fe93eb4e19ae1682604051610ecb919061327c565b60405180910390a25050565b5f5f8781526020019081526020015f20600f015f9054906101000a900460ff16610f36576040517f08c379a0000000000000000000000000000000000000000000000000000000008152600401610f2d90612b02565b60405180910390fd5b6040518060a00160405280868152602001858152602001848152602001838152602001828152505f5f8881526020019081526020015f206005015f820151815f0155602082015181600101556040820151816002019080519060200190610f9e929190611856565b506060820151816003019080519060200190610fbb9291906118ad565b506080820151816004019080519060200190610fd892919061180b565b50905050857f88bce0789aa8d72b2f393c9904ec65b3b0a43eae2364a9e2879283421c7f1ffb868661100a9190613183565b6040516110179190611a93565b60405180910390a2505050505050565b61102f6118f8565b5f5f8381526020019081526020015f20600f015f9054906101000a900460ff1661108e576040517f08c379a000000000000000000000000000000000000000000000000000000000815260040161108590612b02565b60405180910390fd5b5f5f8381526020019081526020015f20604051806101000160405290815f8201548152602001600182016040518060800160405290815f820180546110d290612bdb565b80601f01602080910402602001604051908101604052809291908181526020018280546110fe90612bdb565b80156111495780601f1061112057610100808354040283529160200191611149565b820191905f5260205f20905b81548152906001019060200180831161112c57829003601f168201915b505050505081526020016001820180548060200260200160405190810160405280929190818152602001828054801561119f57602002820191905f5260205f20905b81548152602001906001019080831161118b575b50505050508152602001600282018054806020026020016040519081016040528092919081815260200182805480156111f557602002820191905f5260205f20905b8154815260200190600101908083116111e1575b505050505081526020016003820154815250508152602001600582016040518060a00160405290815f82015481526020016001820154815260200160028201805480602002602001604051908101604052809291908181526020015f905b828210156112fb578382905f5260205f2001805461127090612bdb565b80601f016020809104026020016040519081016040528092919081815260200182805461129c90612bdb565b80156112e75780601f106112be576101008083540402835291602001916112e7565b820191905f5260205f20905b8154815290600101906020018083116112ca57829003601f168201915b505050505081526020019060010190611253565b5050505081526020016003820180548060200260200160405190810160405280929190818152602001828054801561135057602002820191905f5260205f20905b81548152602001906001019080831161133c575b50505050508152602001600482018054806020026020016040519081016040528092919081815260200182805480156113a657602002820191905f5260205f20905b815481526020019060010190808311611392575b5050505050815250508152602001600a8201805480602002602001604051908101604052809291908181526020015f905b828210156114be578382905f5260205f2090600502016040518060a00160405290815f8201548152602001600182015481526020016002820154815260200160038201805461142590612bdb565b80601f016020809104026020016040519081016040528092919081815260200182805461145190612bdb565b801561149c5780601f106114735761010080835404028352916020019161149c565b820191905f5260205f20905b81548152906001019060200180831161147f57829003601f168201915b50505050508152602001600482015481525050815260200190600101906113d7565b505050508152602001600b82016040518060a00160405290815f820154815260200160018201548152602001600282015f9054906101000a900460ff161515151581526020016002820160019054906101000a900473ffffffffffffffffffffffffffffffffffffffff1673ffffffffffffffffffffffffffffffffffffffff1673ffffffffffffffffffffffffffffffffffffffff1681526020016003820154815250508152602001600f82015f9054906101000a900460ff16151515158152602001601082018054806020026020016040519081016040528092919081815260200182805480156115ce57602002820191905f5260205f20905b8154815260200190600101908083116115ba575b505050505081526020016011820180548060200260200160405190810160405280929190818152602001828054801561162457602002820191905f5260205f20905b815481526020019060010190808311611610575b5050505050815250509050919050565b5f5f5f8381526020019081526020015f20600f015f9054906101000a900460ff16611694576040517f08c379a000000000000000000000000000000000000000000000000000000000815260040161168b90612b02565b60405180910390fd5b5f5f5f8481526020019081526020015f2060110180549050116116ec576040517f08c379a00000000000000000000000000000000000000000000000000000000081526004016116e3906132df565b60405180910390fd5b5f5f8381526020019081526020015f2060110160015f5f8581526020019081526020015f20601101805490506117229190613183565b81548110611733576117326131b6565b5b905f5260205f2001549050919050565b60605f5f8381526020019081526020015f20600f015f9054906101000a900460ff166117a4576040517f08c379a000000000000000000000000000000000000000000000000000000000815260040161179b90612b02565b60405180910390fd5b5f5f8381526020019081526020015f206011018054806020026020016040519081016040528092919081815260200182805480156117ff57602002820191905f5260205f20905b8154815260200190600101908083116117eb575b50505050509050919050565b828054828255905f5260205f20908101928215611845579160200282015b82811115611844578251825591602001919060010190611829565b5b509050611852919061194f565b5090565b828054828255905f5260205f2090810192821561189c579160200282015b8281111561189b57825182908161188b9190612dab565b5091602001919060010190611874565b5b5090506118a9919061196a565b5090565b828054828255905f5260205f209081019282156118e7579160200282015b828111156118e65782518255916020019190600101906118cb565b5b5090506118f4919061198d565b5090565b6040518061010001604052805f81526020016119126119a8565b815260200161191f6119cf565b8152602001606081526020016119336119fc565b81526020015f1515815260200160608152602001606081525090565b5b80821115611966575f815f905550600101611950565b5090565b5b80821115611989575f81816119809190611a3e565b5060010161196b565b5090565b5b808211156119a4575f815f90555060010161198e565b5090565b60405180608001604052806060815260200160608152602001606081526020015f81525090565b6040518060a001604052805f81526020015f81526020016060815260200160608152602001606081525090565b6040518060a001604052805f81526020015f81526020015f151581526020015f73ffffffffffffffffffffffffffffffffffffffff1681526020015f81525090565b508054611a4a90612bdb565b5f825580601f10611a5b5750611a78565b601f0160209004905f5260205f2090810190611a77919061194f565b5b50565b5f819050919050565b611a8d81611a7b565b82525050565b5f602082019050611aa65f830184611a84565b92915050565b5f604051905090565b5f5ffd5b5f5ffd5b611ac681611a7b565b8114611ad0575f5ffd5b50565b5f81359050611ae181611abd565b92915050565b5f60208284031215611afc57611afb611ab5565b5b5f611b0984828501611ad3565b91505092915050565b5f8115159050919050565b611b2681611b12565b82525050565b5f602082019050611b3f5f830184611b1d565b92915050565b5f819050919050565b611b5781611b45565b8114611b61575f5ffd5b50565b5f81359050611b7281611b4e565b92915050565b5f5ffd5b5f5ffd5b5f601f19601f8301169050919050565b7f4e487b71000000000000000000000000000000000000000000000000000000005f52604160045260245ffd5b611bc682611b80565b810181811067ffffffffffffffff82111715611be557611be4611b90565b5b80604052505050565b5f611bf7611aac565b9050611c038282611bbd565b919050565b5f67ffffffffffffffff821115611c2257611c21611b90565b5b611c2b82611b80565b9050602081019050919050565b828183375f83830152505050565b5f611c58611c5384611c08565b611bee565b905082815260208101848484011115611c7457611c73611b7c565b5b611c7f848285611c38565b509392505050565b5f82601f830112611c9b57611c9a611b78565b5b8135611cab848260208601611c46565b91505092915050565b5f5f5f5f5f60a08688031215611ccd57611ccc611ab5565b5b5f611cda88828901611ad3565b9550506020611ceb88828901611b64565b9450506040611cfc88828901611ad3565b935050606086013567ffffffffffffffff811115611d1d57611d1c611ab9565b5b611d2988828901611c87565b9250506080611d3a88828901611ad3565b9150509295509295909350565b5f5f60408385031215611d5d57611d5c611ab5565b5b5f611d6a85828601611ad3565b9250506020611d7b85828601611ad3565b9150509250929050565b5f5f5f60608486031215611d9c57611d9b611ab5565b5b5f611da986828701611ad3565b9350506020611dba86828701611ad3565b9250506040611dcb86828701611ad3565b9150509250925092565b5f81519050919050565b5f82825260208201905092915050565b8281835e5f83830152505050565b5f611e0782611dd5565b611e118185611ddf565b9350611e21818560208601611def565b611e2a81611b80565b840191505092915050565b5f81519050919050565b5f82825260208201905092915050565b5f819050602082019050919050565b611e6781611a7b565b82525050565b5f611e788383611e5e565b60208301905092915050565b5f602082019050919050565b5f611e9a82611e35565b611ea48185611e3f565b9350611eaf83611e4f565b805f5b83811015611edf578151611ec68882611e6d565b9750611ed183611e84565b925050600181019050611eb2565b5085935050505092915050565b5f608083015f8301518482035f860152611f068282611dfd565b91505060208301518482036020860152611f208282611e90565b91505060408301518482036040860152611f3a8282611e90565b9150506060830151611f4f6060860182611e5e565b508091505092915050565b5f81519050919050565b5f82825260208201905092915050565b5f819050602082019050919050565b5f611f8e8383611dfd565b905092915050565b5f602082019050919050565b5f611fac82611f5a565b611fb68185611f64565b935083602082028501611fc885611f74565b805f5b858110156120035784840389528151611fe48582611f83565b9450611fef83611f96565b925060208a01995050600181019050611fcb565b50829750879550505050505092915050565b5f81519050919050565b5f82825260208201905092915050565b5f819050602082019050919050565b61204781611b45565b82525050565b5f612058838361203e565b60208301905092915050565b5f602082019050919050565b5f61207a82612015565b612084818561201f565b935061208f8361202f565b805f5b838110156120bf5781516120a6888261204d565b97506120b183612064565b925050600181019050612092565b5085935050505092915050565b5f60a083015f8301516120e15f860182611e5e565b5060208301516120f46020860182611e5e565b506040830151848203604086015261210c8282611fa2565b915050606083015184820360608601526121268282612070565b915050608083015184820360808601526121408282611e90565b9150508091505092915050565b61215681611b12565b82525050565b5f73ffffffffffffffffffffffffffffffffffffffff82169050919050565b5f6121858261215c565b9050919050565b6121958161217b565b82525050565b60a082015f8201516121af5f850182611e5e565b5060208201516121c26020850182611e5e565b5060408201516121d5604085018261214d565b5060608201516121e8606085018261218c565b5060808201516121fb6080850182611e5e565b50505050565b5f610120820190506122155f830188611a84565b81810360208301526122278187611eec565b9050818103604083015261223b81866120cc565b905061224a606083018561219b565b612258610100830184611b1d565b9695505050505050565b5f67ffffffffffffffff82111561227c5761227b611b90565b5b602082029050602081019050919050565b5f5ffd5b5f6122a361229e84612262565b611bee565b905080838252602082019050602084028301858111156122c6576122c561228d565b5b835b818110156122ef57806122db8882611ad3565b8452602084019350506020810190506122c8565b5050509392505050565b5f82601f83011261230d5761230c611b78565b5b813561231d848260208601612291565b91505092915050565b5f5f5f6060848603121561233d5761233c611ab5565b5b5f84013567ffffffffffffffff81111561235a57612359611ab9565b5b61236686828701611c87565b935050602084013567ffffffffffffffff81111561238757612386611ab9565b5b612393868287016122f9565b925050604084013567ffffffffffffffff8111156123b4576123b3611ab9565b5b6123c0868287016122f9565b9150509250925092565b6123d38161217b565b81146123dd575f5ffd5b50565b5f813590506123ee816123ca565b92915050565b5f5f6040838503121561240a57612409611ab5565b5b5f61241785828601611ad3565b9250506020612428858286016123e0565b9150509250929050565b5f67ffffffffffffffff82111561244c5761244b611b90565b5b602082029050602081019050919050565b5f61246f61246a84612432565b611bee565b905080838252602082019050602084028301858111156124925761249161228d565b5b835b818110156124d957803567ffffffffffffffff8111156124b7576124b6611b78565b5b8086016124c48982611c87565b85526020850194505050602081019050612494565b5050509392505050565b5f82601f8301126124f7576124f6611b78565b5b813561250784826020860161245d565b91505092915050565b5f67ffffffffffffffff82111561252a57612529611b90565b5b602082029050602081019050919050565b5f61254d61254884612510565b611bee565b905080838252602082019050602084028301858111156125705761256f61228d565b5b835b8181101561259957806125858882611b64565b845260208401935050602081019050612572565b5050509392505050565b5f82601f8301126125b7576125b6611b78565b5b81356125c784826020860161253b565b91505092915050565b5f5f5f5f5f5f60c087890312156125ea576125e9611ab5565b5b5f6125f789828a01611ad3565b965050602061260889828a01611ad3565b955050604061261989828a01611ad3565b945050606087013567ffffffffffffffff81111561263a57612639611ab9565b5b61264689828a016124e3565b935050608087013567ffffffffffffffff81111561266757612666611ab9565b5b61267389828a016125a3565b92505060a087013567ffffffffffffffff81111561269457612693611ab9565b5b6126a089828a016122f9565b9150509295509295509295565b5f608083015f8301518482035f8601526126c78282611dfd565b915050602083015184820360208601526126e18282611e90565b915050604083015184820360408601526126fb8282611e90565b91505060608301516127106060860182611e5e565b508091505092915050565b5f60a083015f8301516127305f860182611e5e565b5060208301516127436020860182611e5e565b506040830151848203604086015261275b8282611fa2565b915050606083015184820360608601526127758282612070565b9150506080830151848203608086015261278f8282611e90565b9150508091505092915050565b5f81519050919050565b5f82825260208201905092915050565b5f819050602082019050919050565b5f60a083015f8301516127da5f860182611e5e565b5060208301516127ed602086018261203e565b5060408301516128006040860182611e5e565b50606083015184820360608601526128188282611dfd565b915050608083015161282d6080860182611e5e565b508091505092915050565b5f61284383836127c5565b905092915050565b5f602082019050919050565b5f6128618261279c565b61286b81856127a6565b93508360208202850161287d856127b6565b805f5b858110156128b857848403895281516128998582612838565b94506128a48361284b565b925060208a01995050600181019050612880565b50829750879550505050505092915050565b60a082015f8201516128de5f850182611e5e565b5060208201516128f16020850182611e5e565b506040820151612904604085018261214d565b506060820151612917606085018261218c565b50608082015161292a6080850182611e5e565b50505050565b5f61018083015f8301516129465f860182611e5e565b506020830151848203602086015261295e82826126ad565b91505060408301518482036040860152612978828261271b565b915050606083015184820360608601526129928282612857565b91505060808301516129a760808601826128ca565b5060a08301516129bb61012086018261214d565b5060c08301518482036101408601526129d48282611e90565b91505060e08301518482036101608601526129ef8282611e90565b9150508091505092915050565b5f6020820190508181035f830152612a148184612930565b905092915050565b5f82825260208201905092915050565b5f612a3682611e35565b612a408185612a1c565b9350612a4b83611e4f565b805f5b83811015612a7b578151612a628882611e6d565b9750612a6d83611e84565b925050600181019050612a4e565b5085935050505092915050565b5f6020820190508181035f830152612aa08184612a2c565b905092915050565b5f82825260208201905092915050565b7f4170706c6520646f6573206e6f742065786973740000000000000000000000005f82015250565b5f612aec601483612aa8565b9150612af782612ab8565b602082019050919050565b5f6020820190508181035f830152612b1981612ae0565b9050919050565b7f46726573686e6573732073636f7265206d757374206265206265747765656e205f8201527f302d313030000000000000000000000000000000000000000000000000000000602082015250565b5f612b7a602583612aa8565b9150612b8582612b20565b604082019050919050565b5f6020820190508181035f830152612ba781612b6e565b9050919050565b7f4e487b71000000000000000000000000000000000000000000000000000000005f52602260045260245ffd5b5f6002820490506001821680612bf257607f821691505b602082108103612c0557612c04612bae565b5b50919050565b5f819050815f5260205f209050919050565b5f6020601f8301049050919050565b5f82821b905092915050565b5f60088302612c677fffffffffffffffffffffffffffffffffffffffffffffffffffffffffffffffff82612c2c565b612c718683612c2c565b95508019841693508086168417925050509392505050565b5f819050919050565b5f612cac612ca7612ca284611a7b565b612c89565b611a7b565b9050919050565b5f819050919050565b612cc583612c92565b612cd9612cd182612cb3565b848454612c38565b825550505050565b5f5f905090565b612cf0612ce1565b612cfb818484612cbc565b505050565b5b81811015612d1e57612d135f82612ce8565b600181019050612d01565b5050565b601f821115612d6357612d3481612c0b565b612d3d84612c1d565b81016020851015612d4c578190505b612d60612d5885612c1d565b830182612d00565b50505b505050565b5f82821c905092915050565b5f612d835f1984600802612d68565b1980831691505092915050565b5f612d9b8383612d74565b9150826002028217905092915050565b612db482611dd5565b67ffffffffffffffff811115612dcd57612dcc611b90565b5b612dd78254612bdb565b612de2828285612d22565b5f60209050601f831160018114612e13575f8415612e01578287015190505b612e0b8582612d90565b865550612e72565b601f198416612e2186612c0b565b5f5b82811015612e4857848901518255600182019150602085019450602081019050612e23565b86831015612e655784890151612e61601f891682612d74565b8355505b6001600288020188555050505b505050505050565b612e8381611b45565b82525050565b5f612e9382611dd5565b612e9d8185612aa8565b9350612ead818560208601611def565b612eb681611b80565b840191505092915050565b5f608082019050612ed45f830187612e7a565b612ee16020830186611a84565b8181036040830152612ef38185612e89565b9050612f026060830184611a84565b95945050505050565b7f77617265686f75736500000000000000000000000000000000000000000000005f82015250565b5f612f3f600983612aa8565b9150612f4a82612f0b565b602082019050919050565b5f604082019050612f685f830184611a84565b8181036020830152612f7981612f33565b905092915050565b7f5472616e73706f7274206e6f74206c6f676765642079657400000000000000005f82015250565b5f612fb5601883612aa8565b9150612fc082612f81565b602082019050919050565b5f6020820190508181035f830152612fe281612fa9565b9050919050565b5f604082019050612ffc5f830185611a84565b6130096020830184611a84565b9392505050565b7f73746f72650000000000000000000000000000000000000000000000000000005f82015250565b5f613044600583612aa8565b915061304f82613010565b602082019050919050565b5f60408201905061306d5f830184611a84565b818103602083015261307e81613038565b905092915050565b7f48756d69646974792061727261792072657175697265640000000000000000005f82015250565b5f6130ba601783612aa8565b91506130c582613086565b602082019050919050565b5f6020820190508181035f8301526130e7816130ae565b9050919050565b7f4368656d6963616c7320617272617920726571756972656400000000000000005f82015250565b5f613122601883612aa8565b915061312d826130ee565b602082019050919050565b5f6020820190508181035f83015261314f81613116565b9050919050565b7f4e487b71000000000000000000000000000000000000000000000000000000005f52601160045260245ffd5b5f61318d82611a7b565b915061319883611a7b565b92508282039050818111156131b0576131af613156565b5b92915050565b7f4e487b71000000000000000000000000000000000000000000000000000000005f52603260045260245ffd5b5f6060820190508181035f8301526131fb8186612e89565b905061320a6020830185611a84565b818103604083015261321c8184612a2c565b9050949350505050565b5f61323082611a7b565b91507fffffffffffffffffffffffffffffffffffffffffffffffffffffffffffffffff820361326257613261613156565b5b600182019050919050565b6132768161217b565b82525050565b5f60208201905061328f5f83018461326d565b92915050565b7f4e6f2066726573686e657373206461746120617661696c61626c6500000000005f82015250565b5f6132c9601b83612aa8565b91506132d482613295565b602082019050919050565b5f6020820190508181035f8301526132f6816132bd565b905091905056fea2646970667358221220958d44f9e1ac99cd44a891ed04e37f6b24a33646b5249d66ef73b15b2fa0028564736f6c634300081e0033",
        "linkReferences": {}
    },
    "methodIdentifiers": {
        "appleExists(uint256)": "261bbc39",
        "apples(uint256)": "8c45ab8a",
        "createApple(string,uint256[],uint256[])": "8cecdbea",
        "getApple(uint256)": "b14ce811",
        "getCurrentFreshnessScore(uint256)": "d10da3b3",
        "getFreshnessHistory(uint256)": "ea02e9d7",
        "logStore(uint256,uint256,uint256)": "85d94cfc",
        "logTransport(uint256,uint256,uint256,string[],int256[],uint256[])": "a91dabe3",
        "logWarehouse(uint256,int256,uint256,string,uint256)": "6da7af7f",
        "nextAppleId()": "20fb4a49",
        "sellApple(uint256,address)": "8e5ba96e",
        "updatePrice(uint256,uint256)": "82367b2d"
    },
    "id": 19
}