{
    "abi": [
        {
            "type": "function",
            "name": "appleExists",
            "inputs": [
                {
                    "name": "appleId",
                    "type": "uint256",
                    "internalType": "uint256"
                }
            ],
            "outputs": [
                {
                    "name": "",
                    "type": "bool",
                    "internalType": "bool"
                }
            ],
            "stateMutability": "view"
        },
        {
            "type": "function",
            "name": "apples",
            "inputs": [
                {
                    "name": "",
                    "type": "uint256",
                    "internalType": "uint256"
                }
            ],
            "outputs": [
                {
                    "name": "id",
                    "type": "uint256",
                    "internalType": "uint256"
                },
                {
                    "name": "harvest",
                    "type": "tuple",
                    "internalType": "struct AppleLifecycle.HarvestData",
                    "components": [
                        {
                            "name": "soilComposition",
                            "type": "string",
                            "internalType": "string"
                        },
                        {
                            "name": "humidity",
                            "type": "uint256[]",
                            "internalType": "uint256[]"
                        },
                        {
                            "name": "chemicals",
                            "type": "uint256[]",
                            "internalType": "uint256[]"
                        },
                        {
                            "name": "timestamp",
                            "type": "uint256",
                            "internalType": "uint256"
                        }
                    ]
                },
                {
                    "name": "transport",
                    "type": "tuple",
                    "internalType": "struct AppleLifecycle.TransportData",
                    "components": [
                        {
                            "name": "startTimestamp",
                            "type": "uint256",
                            "internalType": "uint256"
                        },
                        {
                            "name": "endTimestamp",
                            "type": "uint256",
                            "internalType": "uint256"
                        },
                        {
                            "name": "gpsCoordinates",
                            "type": "string[]",
                            "internalType": "string[]"
                        },
                        {
                            "name": "temperatures",
                            "type": "int256[]",
                            "internalType": "int256[]"
                        },
                        {
                            "name": "ethyleneLevels",
                            "type": "uint256[]",
                            "internalType": "uint256[]"
                        }
                    ]
                },
                {
                    "name": "store",
                    "type": "tuple",
                    "internalType": "struct AppleLifecycle.StoreData",
                    "components": [
                        {
                            "name": "timestamp",
                            "type": "uint256",
                            "internalType": "uint256"
                        },
                        {
                            "name": "ethyleneLevel",
                            "type": "uint256",
                            "internalType": "uint256"
                        },
                        {
                            "name": "sold",
                            "type": "bool",
                            "internalType": "bool"
                        },
                        {
                            "name": "buyer",
                            "type": "address",
                            "internalType": "address"
                        }
                    ]
                },
                {
                    "name": "exists",
                    "type": "bool",
                    "internalType": "bool"
                }
            ],
            "stateMutability": "view"
        },
        {
            "type": "function",
            "name": "createApple",
            "inputs": [
                {
                    "name": "soilComposition",
                    "type": "string",
                    "internalType": "string"
                },
                {
                    "name": "humidity",
                    "type": "uint256[]",
                    "internalType": "uint256[]"
                },
                {
                    "name": "chemicals",
                    "type": "uint256[]",
                    "internalType": "uint256[]"
                }
            ],
            "outputs": [],
            "stateMutability": "nonpayable"
        },
        {
            "type": "function",
            "name": "getApple",
            "inputs": [
                {
                    "name": "appleId",
                    "type": "uint256",
                    "internalType": "uint256"
                }
            ],
            "outputs": [
                {
                    "name": "",
                    "type": "tuple",
                    "internalType": "struct AppleLifecycle.Apple",
                    "components": [
                        {
                            "name": "id",
                            "type": "uint256",
                            "internalType": "uint256"
                        },
                        {
                            "name": "harvest",
                            "type": "tuple",
                            "internalType": "struct AppleLifecycle.HarvestData",
                            "components": [
                                {
                                    "name": "soilComposition",
                                    "type": "string",
                                    "internalType": "string"
                                },
                                {
                                    "name": "humidity",
                                    "type": "uint256[]",
                                    "internalType": "uint256[]"
                                },
                                {
                                    "name": "chemicals",
                                    "type": "uint256[]",
                                    "internalType": "uint256[]"
                                },
                                {
                                    "name": "timestamp",
                                    "type": "uint256",
                                    "internalType": "uint256"
                                }
                            ]
                        },
                        {
                            "name": "transport",
                            "type": "tuple",
                            "internalType": "struct AppleLifecycle.TransportData",
                            "components": [
                                {
                                    "name": "startTimestamp",
                                    "type": "uint256",
                                    "internalType": "uint256"
                                },
                                {
                                    "name": "endTimestamp",
                                    "type": "uint256",
                                    "internalType": "uint256"
                                },
                                {
                                    "name": "gpsCoordinates",
                                    "type": "string[]",
                                    "internalType": "string[]"
                                },
                                {
                                    "name": "temperatures",
                                    "type": "int256[]",
                                    "internalType": "int256[]"
                                },
                                {
                                    "name": "ethyleneLevels",
                                    "type": "uint256[]",
                                    "internalType": "uint256[]"
                                }
                            ]
                        },
                        {
                            "name": "warehouseLogs",
                            "type": "tuple[]",
                            "internalType": "struct AppleLifecycle.WarehouseData[]",
                            "components": [
                                {
                                    "name": "timestamp",
                                    "type": "uint256",
                                    "internalType": "uint256"
                                },
                                {
                                    "name": "temperature",
                                    "type": "int256",
                                    "internalType": "int256"
                                },
                                {
                                    "name": "ethyleneLevel",
                                    "type": "uint256",
                                    "internalType": "uint256"
                                },
                                {
                                    "name": "location",
                                    "type": "string",
                                    "internalType": "string"
                                }
                            ]
                        },
                        {
                            "name": "store",
                            "type": "tuple",
                            "internalType": "struct AppleLifecycle.StoreData",
                            "components": [
                                {
                                    "name": "timestamp",
                                    "type": "uint256",
                                    "internalType": "uint256"
                                },
                                {
                                    "name": "ethyleneLevel",
                                    "type": "uint256",
                                    "internalType": "uint256"
                                },
                                {
                                    "name": "sold",
                                    "type": "bool",
                                    "internalType": "bool"
                                },
                                {
                                    "name": "buyer",
                                    "type": "address",
                                    "internalType": "address"
                                }
                            ]
                        },
                        {
                            "name": "exists",
                            "type": "bool",
                            "internalType": "bool"
                        }
                    ]
                }
            ],
            "stateMutability": "view"
        },
        {
            "type": "function",
            "name": "logStore",
            "inputs": [
                {
                    "name": "appleId",
                    "type": "uint256",
                    "internalType": "uint256"
                },
                {
                    "name": "ethyleneLevel",
                    "type": "uint256",
                    "internalType": "uint256"
                }
            ],
            "outputs": [],
            "stateMutability": "nonpayable"
        },
        {
            "type": "function",
            "name": "logTransport",
            "inputs": [
                {
                    "name": "appleId",
                    "type": "uint256",
                    "internalType": "uint256"
                },
                {
                    "name": "startTimestamp",
                    "type": "uint256",
                    "internalType": "uint256"
                },
                {
                    "name": "endTimestamp",
                    "type": "uint256",
                    "internalType": "uint256"
                },
                {
                    "name": "gpsCoordinates",
                    "type": "string[]",
                    "internalType": "string[]"
                },
                {
                    "name": "temperatures",
                    "type": "int256[]",
                    "internalType": "int256[]"
                },
                {
                    "name": "ethyleneLevels",
                    "type": "uint256[]",
                    "internalType": "uint256[]"
                }
            ],
            "outputs": [],
            "stateMutability": "nonpayable"
        },
        {
            "type": "function",
            "name": "logWarehouse",
            "inputs": [
                {
                    "name": "appleId",
                    "type": "uint256",
                    "internalType": "uint256"
                },
                {
                    "name": "temperature",
                    "type": "int256",
                    "internalType": "int256"
                },
                {
                    "name": "ethyleneLevel",
                    "type": "uint256",
                    "internalType": "uint256"
                },
                {
                    "name": "location",
                    "type": "string",
                    "internalType": "string"
                }
            ],
            "outputs": [],
            "stateMutability": "nonpayable"
        },
        {
            "type": "function",
            "name": "nextAppleId",
            "inputs": [],
            "outputs": [
                {
                    "name": "",
                    "type": "uint256",
                    "internalType": "uint256"
                }
            ],
            "stateMutability": "view"
        },
        {
            "type": "function",
            "name": "sellApple",
            "inputs": [
                {
                    "name": "appleId",
                    "type": "uint256",
                    "internalType": "uint256"
                },
                {
                    "name": "buyer",
                    "type": "address",
                    "internalType": "address"
                }
            ],
            "outputs": [],
            "stateMutability": "nonpayable"
        },
        {
            "type": "event",
            "name": "AppleCreated",
            "inputs": [
                {
                    "name": "appleId",
                    "type": "uint256",
                    "indexed": true,
                    "internalType": "uint256"
                }
            ],
            "anonymous": false
        },
        {
            "type": "event",
            "name": "AppleSold",
            "inputs": [
                {
                    "name": "appleId",
                    "type": "uint256",
                    "indexed": true,
                    "internalType": "uint256"
                },
                {
                    "name": "buyer",
                    "type": "address",
                    "indexed": false,
                    "internalType": "address"
                }
            ],
            "anonymous": false
        },
        {
            "type": "event",
            "name": "HarvestLogged",
            "inputs": [
                {
                    "name": "appleId",
                    "type": "uint256",
                    "indexed": true,
                    "internalType": "uint256"
                },
                {
                    "name": "soil",
                    "type": "string",
                    "indexed": false,
                    "internalType": "string"
                },
                {
                    "name": "latestHumidity",
                    "type": "uint256",
                    "indexed": false,
                    "internalType": "uint256"
                },
                {
                    "name": "chemicals",
                    "type": "uint256[]",
                    "indexed": false,
                    "internalType": "uint256[]"
                }
            ],
            "anonymous": false
        },
        {
            "type": "event",
            "name": "StoreLogged",
            "inputs": [
                {
                    "name": "appleId",
                    "type": "uint256",
                    "indexed": true,
                    "internalType": "uint256"
                },
                {
                    "name": "ethyleneLevel",
                    "type": "uint256",
                    "indexed": false,
                    "internalType": "uint256"
                }
            ],
            "anonymous": false
        },
        {
            "type": "event",
            "name": "TransportLogged",
            "inputs": [
                {
                    "name": "appleId",
                    "type": "uint256",
                    "indexed": true,
                    "internalType": "uint256"
                },
                {
                    "name": "duration",
                    "type": "uint256",
                    "indexed": false,
                    "internalType": "uint256"
                }
            ],
            "anonymous": false
        },
        {
            "type": "event",
            "name": "WarehouseLogged",
            "inputs": [
                {
                    "name": "appleId",
                    "type": "uint256",
                    "indexed": true,
                    "internalType": "uint256"
                },
                {
                    "name": "temperature",
                    "type": "int256",
                    "indexed": false,
                    "internalType": "int256"
                },
                {
                    "name": "ethyleneLevel",
                    "type": "uint256",
                    "indexed": false,
                    "internalType": "uint256"
                },
                {
                    "name": "location",
                    "type": "string",
                    "indexed": false,
                    "internalType": "string"
                }
            ],
            "anonymous": false
        }
    ],
    "bytecode": {
        "object": "0x6080604052348015600e575f5ffd5b506129b78061001c5f395ff3fe608060405234801561000f575f5ffd5b5060043610610091575f3560e01c80638cecdbea116100645780638cecdbea146101335780638e5ba96e1461014f578063a91dabe31461016b578063b14ce81114610187578063c1e33264146101b757610091565b80631f1e5b5b1461009557806320fb4a49146100b1578063261bbc39146100cf5780638c45ab8a146100ff575b5f5ffd5b6100af60048036038101906100aa91906114b5565b6101d3565b005b6100b9610335565b6040516100c69190611502565b60405180910390f35b6100e960048036038101906100e4919061151b565b61033b565b6040516100f69190611560565b60405180910390f35b6101196004803603810190610114919061151b565b610363565b60405161012a9594939291906119ab565b60405180910390f35b61014d60048036038101906101489190611bfb565b610719565b005b61016960048036038101906101649190611cc9565b610928565b005b61018560048036038101906101809190611ecf565b610a46565b005b6101a1600480360381019061019c919061151b565b610b96565b6040516101ae919061229f565b60405180910390f35b6101d160048036038101906101cc91906122bf565b6110e2565b005b5f5f8381526020019081526020015f20600e015f9054906101000a900460ff16610232576040517f08c379a000000000000000000000000000000000000000000000000000000000815260040161022990612399565b60405180910390fd5b60405180608001604052804281526020018281526020015f151581526020015f73ffffffffffffffffffffffffffffffffffffffff168152505f5f8481526020019081526020015f20600b015f820151815f0155602082015181600101556040820151816002015f6101000a81548160ff02191690831515021790555060608201518160020160016101000a81548173ffffffffffffffffffffffffffffffffffffffff021916908373ffffffffffffffffffffffffffffffffffffffff160217905550905050817f2996662cab5773151d0a1cf9f4eaee6b69cb0206bb2085842b22a7d78121dad3826040516103299190611502565b60405180910390a25050565b60015481565b5f5f5f8381526020019081526020015f20600e015f9054906101000a900460ff169050919050565b5f602052805f5260405f205f91509050805f015490806001016040518060800160405290815f82018054610396906123e4565b80601f01602080910402602001604051908101604052809291908181526020018280546103c2906123e4565b801561040d5780601f106103e45761010080835404028352916020019161040d565b820191905f5260205f20905b8154815290600101906020018083116103f057829003601f168201915b505050505081526020016001820180548060200260200160405190810160405280929190818152602001828054801561046357602002820191905f5260205f20905b81548152602001906001019080831161044f575b50505050508152602001600282018054806020026020016040519081016040528092919081815260200182805480156104b957602002820191905f5260205f20905b8154815260200190600101908083116104a5575b5050505050815260200160038201548152505090806005016040518060a00160405290815f82015481526020016001820154815260200160028201805480602002602001604051908101604052809291908181526020015f905b828210156105bb578382905f5260205f20018054610530906123e4565b80601f016020809104026020016040519081016040528092919081815260200182805461055c906123e4565b80156105a75780601f1061057e576101008083540402835291602001916105a7565b820191905f5260205f20905b81548152906001019060200180831161058a57829003601f168201915b505050505081526020019060010190610513565b5050505081526020016003820180548060200260200160405190810160405280929190818152602001828054801561061057602002820191905f5260205f20905b8154815260200190600101908083116105fc575b505050505081526020016004820180548060200260200160405190810160405280929190818152602001828054801561066657602002820191905f5260205f20905b815481526020019060010190808311610652575b5050505050815250509080600b016040518060800160405290815f820154815260200160018201548152602001600282015f9054906101000a900460ff161515151581526020016002820160019054906101000a900473ffffffffffffffffffffffffffffffffffffffff1673ffffffffffffffffffffffffffffffffffffffff1673ffffffffffffffffffffffffffffffffffffffff16815250509080600e015f9054906101000a900460ff16905085565b5f82511161075c576040517f08c379a00000000000000000000000000000000000000000000000000000000081526004016107539061245e565b60405180910390fd5b5f81511161079f576040517f08c379a0000000000000000000000000000000000000000000000000000000008152600401610796906124c6565b60405180910390fd5b6001545f5f60015481526020019081526020015f205f01819055506040518060800160405280848152602001838152602001828152602001428152505f5f60015481526020019081526020015f206001015f820151815f0190816108039190612684565b506020820151816001019080519060200190610820929190611216565b50604082015181600201908051906020019061083d929190611216565b506060820151816003015590505060015f5f60015481526020019081526020015f20600e015f6101000a81548160ff0219169083151502179055506001547ff4a6ced0c87e630607f2857e2965fcbe4ac36250d9337358050f603b9607534e60405160405180910390a26001547f6bb8da24601a3bf8f590d493879bd0082692912b9eb9aa9edac324b9d4a9ff3d8484600186516108db9190612780565b815181106108ec576108eb6127b3565b5b60200260200101518460405161090493929190612884565b60405180910390a260015f81548092919061091e906128c7565b9190505550505050565b5f5f8381526020019081526020015f20600e015f9054906101000a900460ff16610987576040517f08c379a000000000000000000000000000000000000000000000000000000000815260040161097e90612399565b60405180910390fd5b60015f5f8481526020019081526020015f20600b016002015f6101000a81548160ff021916908315150217905550805f5f8481526020019081526020015f20600b0160020160016101000a81548173ffffffffffffffffffffffffffffffffffffffff021916908373ffffffffffffffffffffffffffffffffffffffff160217905550817fc454b6a61df2cfda766476c84ec98caf3fa46f59d6b5a22124fe93eb4e19ae1682604051610a3a919061291d565b60405180910390a25050565b5f5f8781526020019081526020015f20600e015f9054906101000a900460ff16610aa5576040517f08c379a0000000000000000000000000000000000000000000000000000000008152600401610a9c90612399565b60405180910390fd5b6040518060a00160405280868152602001858152602001848152602001838152602001828152505f5f8881526020019081526020015f206005015f820151815f0155602082015181600101556040820151816002019080519060200190610b0d929190611261565b506060820151816003019080519060200190610b2a9291906112b8565b506080820151816004019080519060200190610b47929190611216565b50905050857f88bce0789aa8d72b2f393c9904ec65b3b0a43eae2364a9e2879283421c7f1ffb8686610b799190612780565b604051610b869190611502565b60405180910390a2505050505050565b610b9e611303565b5f5f8381526020019081526020015f20600e015f9054906101000a900460ff16610bfd576040517f08c379a0000000000000000000000000000000000000000000000000000000008152600401610bf490612399565b60405180910390fd5b5f5f8381526020019081526020015f206040518060c00160405290815f8201548152602001600182016040518060800160405290815f82018054610c40906123e4565b80601f0160208091040260200160405190810160405280929190818152602001828054610c6c906123e4565b8015610cb75780601f10610c8e57610100808354040283529160200191610cb7565b820191905f5260205f20905b815481529060010190602001808311610c9a57829003601f168201915b5050505050815260200160018201805480602002602001604051908101604052809291908181526020018280548015610d0d57602002820191905f5260205f20905b815481526020019060010190808311610cf9575b5050505050815260200160028201805480602002602001604051908101604052809291908181526020018280548015610d6357602002820191905f5260205f20905b815481526020019060010190808311610d4f575b505050505081526020016003820154815250508152602001600582016040518060a00160405290815f82015481526020016001820154815260200160028201805480602002602001604051908101604052809291908181526020015f905b82821015610e69578382905f5260205f20018054610dde906123e4565b80601f0160208091040260200160405190810160405280929190818152602001828054610e0a906123e4565b8015610e555780601f10610e2c57610100808354040283529160200191610e55565b820191905f5260205f20905b815481529060010190602001808311610e3857829003601f168201915b505050505081526020019060010190610dc1565b50505050815260200160038201805480602002602001604051908101604052809291908181526020018280548015610ebe57602002820191905f5260205f20905b815481526020019060010190808311610eaa575b5050505050815260200160048201805480602002602001604051908101604052809291908181526020018280548015610f1457602002820191905f5260205f20905b815481526020019060010190808311610f00575b5050505050815250508152602001600a8201805480602002602001604051908101604052809291908181526020015f905b82821015611022578382905f5260205f2090600402016040518060800160405290815f82015481526020016001820154815260200160028201548152602001600382018054610f93906123e4565b80601f0160208091040260200160405190810160405280929190818152602001828054610fbf906123e4565b801561100a5780601f10610fe15761010080835404028352916020019161100a565b820191905f5260205f20905b815481529060010190602001808311610fed57829003601f168201915b50505050508152505081526020019060010190610f45565b505050508152602001600b82016040518060800160405290815f820154815260200160018201548152602001600282015f9054906101000a900460ff161515151581526020016002820160019054906101000a900473ffffffffffffffffffffffffffffffffffffffff1673ffffffffffffffffffffffffffffffffffffffff1673ffffffffffffffffffffffffffffffffffffffff16815250508152602001600e82015f9054906101000a900460ff1615151515815250509050919050565b5f5f8581526020019081526020015f20600e015f9054906101000a900460ff16611141576040517f08c379a000000000000000000000000000000000000000000000000000000000815260040161113890612399565b60405180910390fd5b5f60405180608001604052804281526020018581526020018481526020018381525090505f5f8681526020019081526020015f20600a0181908060018154018082558091505060019003905f5260205f2090600402015f909190919091505f820151815f0155602082015181600101556040820151816002015560608201518160030190816111d09190612684565b505050847f2b7d740b0a0c21c53eadbba93a93e686f6e22289fcc75123a668d218c4726f6985858560405161120793929190612945565b60405180910390a25050505050565b828054828255905f5260205f20908101928215611250579160200282015b8281111561124f578251825591602001919060010190611234565b5b50905061125d919061134b565b5090565b828054828255905f5260205f209081019282156112a7579160200282015b828111156112a65782518290816112969190612684565b509160200191906001019061127f565b5b5090506112b49190611366565b5090565b828054828255905f5260205f209081019282156112f2579160200282015b828111156112f15782518255916020019190600101906112d6565b5b5090506112ff9190611389565b5090565b6040518060c001604052805f815260200161131c6113a4565b81526020016113296113cb565b81526020016060815260200161133d6113f8565b81526020015f151581525090565b5b80821115611362575f815f90555060010161134c565b5090565b5b80821115611385575f818161137c9190611434565b50600101611367565b5090565b5b808211156113a0575f815f90555060010161138a565b5090565b60405180608001604052806060815260200160608152602001606081526020015f81525090565b6040518060a001604052805f81526020015f81526020016060815260200160608152602001606081525090565b60405180608001604052805f81526020015f81526020015f151581526020015f73ffffffffffffffffffffffffffffffffffffffff1681525090565b508054611440906123e4565b5f825580601f10611451575061146e565b601f0160209004905f5260205f209081019061146d919061134b565b5b50565b5f604051905090565b5f5ffd5b5f5ffd5b5f819050919050565b61149481611482565b811461149e575f5ffd5b50565b5f813590506114af8161148b565b92915050565b5f5f604083850312156114cb576114ca61147a565b5b5f6114d8858286016114a1565b92505060206114e9858286016114a1565b9150509250929050565b6114fc81611482565b82525050565b5f6020820190506115155f8301846114f3565b92915050565b5f602082840312156115305761152f61147a565b5b5f61153d848285016114a1565b91505092915050565b5f8115159050919050565b61155a81611546565b82525050565b5f6020820190506115735f830184611551565b92915050565b5f81519050919050565b5f82825260208201905092915050565b8281835e5f83830152505050565b5f601f19601f8301169050919050565b5f6115bb82611579565b6115c58185611583565b93506115d5818560208601611593565b6115de816115a1565b840191505092915050565b5f81519050919050565b5f82825260208201905092915050565b5f819050602082019050919050565b61161b81611482565b82525050565b5f61162c8383611612565b60208301905092915050565b5f602082019050919050565b5f61164e826115e9565b61165881856115f3565b935061166383611603565b805f5b8381101561169357815161167a8882611621565b975061168583611638565b925050600181019050611666565b5085935050505092915050565b5f608083015f8301518482035f8601526116ba82826115b1565b915050602083015184820360208601526116d48282611644565b915050604083015184820360408601526116ee8282611644565b91505060608301516117036060860182611612565b508091505092915050565b5f81519050919050565b5f82825260208201905092915050565b5f819050602082019050919050565b5f61174283836115b1565b905092915050565b5f602082019050919050565b5f6117608261170e565b61176a8185611718565b93508360208202850161177c85611728565b805f5b858110156117b757848403895281516117988582611737565b94506117a38361174a565b925060208a0199505060018101905061177f565b50829750879550505050505092915050565b5f81519050919050565b5f82825260208201905092915050565b5f819050602082019050919050565b5f819050919050565b611804816117f2565b82525050565b5f61181583836117fb565b60208301905092915050565b5f602082019050919050565b5f611837826117c9565b61184181856117d3565b935061184c836117e3565b805f5b8381101561187c578151611863888261180a565b975061186e83611821565b92505060018101905061184f565b5085935050505092915050565b5f60a083015f83015161189e5f860182611612565b5060208301516118b16020860182611612565b50604083015184820360408601526118c98282611756565b915050606083015184820360608601526118e3828261182d565b915050608083015184820360808601526118fd8282611644565b9150508091505092915050565b61191381611546565b82525050565b5f73ffffffffffffffffffffffffffffffffffffffff82169050919050565b5f61194282611919565b9050919050565b61195281611938565b82525050565b608082015f82015161196c5f850182611612565b50602082015161197f6020850182611612565b506040820151611992604085018261190a565b5060608201516119a56060850182611949565b50505050565b5f610100820190506119bf5f8301886114f3565b81810360208301526119d181876116a0565b905081810360408301526119e58186611889565b90506119f46060830185611958565b611a0160e0830184611551565b9695505050505050565b5f5ffd5b5f5ffd5b7f4e487b71000000000000000000000000000000000000000000000000000000005f52604160045260245ffd5b611a49826115a1565b810181811067ffffffffffffffff82111715611a6857611a67611a13565b5b80604052505050565b5f611a7a611471565b9050611a868282611a40565b919050565b5f67ffffffffffffffff821115611aa557611aa4611a13565b5b611aae826115a1565b9050602081019050919050565b828183375f83830152505050565b5f611adb611ad684611a8b565b611a71565b905082815260208101848484011115611af757611af6611a0f565b5b611b02848285611abb565b509392505050565b5f82601f830112611b1e57611b1d611a0b565b5b8135611b2e848260208601611ac9565b91505092915050565b5f67ffffffffffffffff821115611b5157611b50611a13565b5b602082029050602081019050919050565b5f5ffd5b5f611b78611b7384611b37565b611a71565b90508083825260208201905060208402830185811115611b9b57611b9a611b62565b5b835b81811015611bc45780611bb088826114a1565b845260208401935050602081019050611b9d565b5050509392505050565b5f82601f830112611be257611be1611a0b565b5b8135611bf2848260208601611b66565b91505092915050565b5f5f5f60608486031215611c1257611c1161147a565b5b5f84013567ffffffffffffffff811115611c2f57611c2e61147e565b5b611c3b86828701611b0a565b935050602084013567ffffffffffffffff811115611c5c57611c5b61147e565b5b611c6886828701611bce565b925050604084013567ffffffffffffffff811115611c8957611c8861147e565b5b611c9586828701611bce565b9150509250925092565b611ca881611938565b8114611cb2575f5ffd5b50565b5f81359050611cc381611c9f565b92915050565b5f5f60408385031215611cdf57611cde61147a565b5b5f611cec858286016114a1565b9250506020611cfd85828601611cb5565b9150509250929050565b5f67ffffffffffffffff821115611d2157611d20611a13565b5b602082029050602081019050919050565b5f611d44611d3f84611d07565b611a71565b90508083825260208201905060208402830185811115611d6757611d66611b62565b5b835b81811015611dae57803567ffffffffffffffff811115611d8c57611d8b611a0b565b5b808601611d998982611b0a565b85526020850194505050602081019050611d69565b5050509392505050565b5f82601f830112611dcc57611dcb611a0b565b5b8135611ddc848260208601611d32565b91505092915050565b5f67ffffffffffffffff821115611dff57611dfe611a13565b5b602082029050602081019050919050565b611e19816117f2565b8114611e23575f5ffd5b50565b5f81359050611e3481611e10565b92915050565b5f611e4c611e4784611de5565b611a71565b90508083825260208201905060208402830185811115611e6f57611e6e611b62565b5b835b81811015611e985780611e848882611e26565b845260208401935050602081019050611e71565b5050509392505050565b5f82601f830112611eb657611eb5611a0b565b5b8135611ec6848260208601611e3a565b91505092915050565b5f5f5f5f5f5f60c08789031215611ee957611ee861147a565b5b5f611ef689828a016114a1565b9650506020611f0789828a016114a1565b9550506040611f1889828a016114a1565b945050606087013567ffffffffffffffff811115611f3957611f3861147e565b5b611f4589828a01611db8565b935050608087013567ffffffffffffffff811115611f6657611f6561147e565b5b611f7289828a01611ea2565b92505060a087013567ffffffffffffffff811115611f9357611f9261147e565b5b611f9f89828a01611bce565b9150509295509295509295565b5f608083015f8301518482035f860152611fc682826115b1565b91505060208301518482036020860152611fe08282611644565b91505060408301518482036040860152611ffa8282611644565b915050606083015161200f6060860182611612565b508091505092915050565b5f60a083015f83015161202f5f860182611612565b5060208301516120426020860182611612565b506040830151848203604086015261205a8282611756565b91505060608301518482036060860152612074828261182d565b9150506080830151848203608086015261208e8282611644565b9150508091505092915050565b5f81519050919050565b5f82825260208201905092915050565b5f819050602082019050919050565b5f608083015f8301516120d95f860182611612565b5060208301516120ec60208601826117fb565b5060408301516120ff6040860182611612565b506060830151848203606086015261211782826115b1565b9150508091505092915050565b5f61212f83836120c4565b905092915050565b5f602082019050919050565b5f61214d8261209b565b61215781856120a5565b935083602082028501612169856120b5565b805f5b858110156121a457848403895281516121858582612124565b945061219083612137565b925060208a0199505060018101905061216c565b50829750879550505050505092915050565b608082015f8201516121ca5f850182611612565b5060208201516121dd6020850182611612565b5060408201516121f0604085018261190a565b5060608201516122036060850182611949565b50505050565b5f61012083015f83015161221f5f860182611612565b50602083015184820360208601526122378282611fac565b91505060408301518482036040860152612251828261201a565b9150506060830151848203606086015261226b8282612143565b915050608083015161228060808601826121b6565b5060a083015161229461010086018261190a565b508091505092915050565b5f6020820190508181035f8301526122b78184612209565b905092915050565b5f5f5f5f608085870312156122d7576122d661147a565b5b5f6122e4878288016114a1565b94505060206122f587828801611e26565b9350506040612306878288016114a1565b925050606085013567ffffffffffffffff8111156123275761232661147e565b5b61233387828801611b0a565b91505092959194509250565b5f82825260208201905092915050565b7f4170706c6520646f6573206e6f742065786973740000000000000000000000005f82015250565b5f61238360148361233f565b915061238e8261234f565b602082019050919050565b5f6020820190508181035f8301526123b081612377565b9050919050565b7f4e487b71000000000000000000000000000000000000000000000000000000005f52602260045260245ffd5b5f60028204905060018216806123fb57607f821691505b60208210810361240e5761240d6123b7565b5b50919050565b7f48756d69646974792061727261792072657175697265640000000000000000005f82015250565b5f61244860178361233f565b915061245382612414565b602082019050919050565b5f6020820190508181035f8301526124758161243c565b9050919050565b7f4368656d6963616c7320617272617920726571756972656400000000000000005f82015250565b5f6124b060188361233f565b91506124bb8261247c565b602082019050919050565b5f6020820190508181035f8301526124dd816124a4565b9050919050565b5f819050815f5260205f209050919050565b5f6020601f8301049050919050565b5f82821b905092915050565b5f600883026125407fffffffffffffffffffffffffffffffffffffffffffffffffffffffffffffffff82612505565b61254a8683612505565b95508019841693508086168417925050509392505050565b5f819050919050565b5f61258561258061257b84611482565b612562565b611482565b9050919050565b5f819050919050565b61259e8361256b565b6125b26125aa8261258c565b848454612511565b825550505050565b5f5f905090565b6125c96125ba565b6125d4818484612595565b505050565b5b818110156125f7576125ec5f826125c1565b6001810190506125da565b5050565b601f82111561263c5761260d816124e4565b612616846124f6565b81016020851015612625578190505b612639612631856124f6565b8301826125d9565b50505b505050565b5f82821c905092915050565b5f61265c5f1984600802612641565b1980831691505092915050565b5f612674838361264d565b9150826002028217905092915050565b61268d82611579565b67ffffffffffffffff8111156126a6576126a5611a13565b5b6126b082546123e4565b6126bb8282856125fb565b5f60209050601f8311600181146126ec575f84156126da578287015190505b6126e48582612669565b86555061274b565b601f1984166126fa866124e4565b5f5b82811015612721578489015182556001820191506020850194506020810190506126fc565b8683101561273e578489015161273a601f89168261264d565b8355505b6001600288020188555050505b505050505050565b7f4e487b71000000000000000000000000000000000000000000000000000000005f52601160045260245ffd5b5f61278a82611482565b915061279583611482565b92508282039050818111156127ad576127ac612753565b5b92915050565b7f4e487b71000000000000000000000000000000000000000000000000000000005f52603260045260245ffd5b5f6127ea82611579565b6127f4818561233f565b9350612804818560208601611593565b61280d816115a1565b840191505092915050565b5f82825260208201905092915050565b5f612832826115e9565b61283c8185612818565b935061284783611603565b805f5b8381101561287757815161285e8882611621565b975061286983611638565b92505060018101905061284a565b5085935050505092915050565b5f6060820190508181035f83015261289c81866127e0565b90506128ab60208301856114f3565b81810360408301526128bd8184612828565b9050949350505050565b5f6128d182611482565b91507fffffffffffffffffffffffffffffffffffffffffffffffffffffffffffffffff820361290357612902612753565b5b600182019050919050565b61291781611938565b82525050565b5f6020820190506129305f83018461290e565b92915050565b61293f816117f2565b82525050565b5f6060820190506129585f830186612936565b61296560208301856114f3565b818103604083015261297781846127e0565b905094935050505056fea264697066735822122014beeec1383f46df128d7c8c74211c4725c5b3161f778554195b76bedd80b8cd64736f6c634300081e0033",
        "linkReferences": {}
    },
    "methodIdentifiers": {
        "appleExists(uint256)": "261bbc39",
        "apples(uint256)": "8c45ab8a",
        "createApple(string,uint256[],uint256[])": "8cecdbea",
        "getApple(uint256)": "b14ce811",
        "logStore(uint256,uint256)": "1f1e5b5b",
        "logTransport(uint256,uint256,uint256,string[],int256[],uint256[])": "a91dabe3",
        "logWarehouse(uint256,int256,uint256,string)": "c1e33264",
        "nextAppleId()": "20fb4a49",
        "sellApple(uint256,address)": "8e5ba96e"
    },
    "id": 19
}